:1000000000308A00A52800002630840083130008F1
:10001000031917280630F800F701F70B0D28F80B25
:100020000C287B30F700F70B1328800B0A280034CC
:10003000201020088316870083120710A0112008C3
:100040008316870083128711A01220088316870069
:1000500083128712831608118312081120112008B9
:100060008316870083120711831688108312881065
:10007000A0132008831687008312871320122008FC
:1000800083168700831207120034182020102008DE
:100090008316870083120714A01120088316870097
:1000A00083128715A01220088316870083128716F3
:1000B0008316081183120815003418202012200816
:1000C00083168700831207162011200883168700E5
:1000D00083120715A0132008831687008312871741
:1000E00083168810831288140034182020122008E8
:1000F0008316870083120716A01320088316870033
:100100008312871720102008831687008312071494
:10011000A011200883168700831287150034182049
:100120002011200883168700831207158316881074
:1001300083128814A0122008831687008312871662
:1001400083160811831208150034840183131F30AD
:10015000830583161F149F141F159F11FF308312F0
:10016000A000831688118312881520132008831697
:100170008700831207178316081083120814A01033
:1001800020088316870083128714831609108312B0
:10019000091483161F109F141F119F1183121F1320
:1001A0009F1783169F1383121F1401308316860036
:1001B00008308312A500FA30A6000420A50BDB2826
:1001C000831608178312081F5F290130A4008316C5
:1001D000061483120618F72845200430A500AF3016
:1001E000A6000420A50BEF280330A4005D29831688
:1001F00086148312861806295D200430A500AF30CE
:10020000A6000420A50BFF28A4015D290030F800FA
:100210001F08C73978049F001030F700F70B0E292C
:1002200000001F151F1912291E08A1000830F80030
:100230001F08C73978049F001030F700F70B1E29FC
:1002400000001F151F1922291E08A2001030F800F7
:100250001F08C73978049F001030F700F70B2E29CC
:1002600000001F151F1932291E08A30021082D3C6C
:1002700003183D29A40145205D2922082D3C0318BF
:1002800045290130A40075205D2923082D3C031861
:100290004D290230A4008F205D29A408031D522996
:1002A00045205D29240B562975205D292408023C30
:1002B000031D5C298F205D295D20E7285C2A8316B9
:1002C00088168312881EDE290230A40083160614C5
:1002D00083120618762945200430A500AF30A60009
:1002E0000420A50B6E290330A400DC298316861494
:1002F0008312861885295D200430A500AF30A60042
:100300000420A50B7E29A401DC290030F8001F0879
:10031000C73978049F001030F700F70B8D290000D3
:100320001F151F1991291E08A1000830F8001F0889
:10033000C73978049F001030F700F70B9D290000A3
:100340001F151F19A1291E08A2001030F8001F0850
:10035000C73978049F001030F700F70BAD29000073
:100360001F151F19B1291E08A30021082D3C0318D1
:10037000BC29A4014520DC2922082D3C0318C429EE
:100380000130A4007520DC2923082D3C0318CC295A
:100390000230A4008F20DC29A408031DD1294520A8
:1003A000DC29240BD5297520DC292408023C031DF7
:1003B000DB298F20DC295D2066295C2A831608163C
:1003C0008312081E5C2A0330A400831606148312CD
:1003D0000618F52945200430A500AF30A6000420FA
:1003E000A50BED290330A4005B2A83168614831223
:1003F0008618042A5D200430A500AF30A600042032
:10040000A50BFD29A4015B2A0030F8001F08C7399D
:1004100078049F001030F700F70B0C2A00001F151E
:100420001F19102A1E08A1000830F8001F08C7393C
:1004300078049F001030F700F70B1C2A00001F15EE
:100440001F19202A1E08A2001030F8001F08C73903
:1004500078049F001030F700F70B2C2A00001F15BE
:100460001F19302A1E08A30021082D3C03183B2A1F
:10047000A40145205B2A22082D3C0318432A0130A1
:10048000A40075205B2A23082D3C03184B2A023058
:10049000A4008F205B2AA408031D502A45205B2A54
:1004A000240B542A75205B2A2408023C031D5A2A77
:0A04B0008F205B2A5D20E529630020
:02400E003A3F37
:00000001FF
;PIC16F877
